:100000000C945D000C9485000C9485000C94850084
:100010000C9485000C9485000C9485000C9485004C
:100020000C9485000C9485000C9485000C9485003C
:100030000C9485000C9485000C9485000C9485002C
:100040000C94F4030C9485000C9485000C948500AA
:100050000C9485000C9485000C9485000C9485000C
:100060000C943E040C94850000000008000201007E
:100070000003040700000000000000000000000072
:10008000250028002B0000000000240027002A0083
:10009000040404040404040402020202020203032E
:1000A0000303030301020408102040800102040836
:1000B00010200102040810205D0511241FBECFEF9F
:1000C000D8E0DEBFCDBF11E0A0E0B1E0E0E8FCE0A9
:1000D00002C005900D92AE31B107D9F721E0AEE133
:1000E000B1E001C01D92AF3DB207E1F710E0CDE5F0
:1000F000D0E004C02197FE010E943806CC35D1071C
:10010000C9F70E948B050C943E060C94000090E009
:10011000FC01EC55FF4F249180579F4FFC018491C7
:10012000882399F090E0880F991FFC01EA57FF4F50
:10013000A591B491FC01E458FF4F859194918FB73C
:10014000F894EC91E22BEC938FBF08950895CF9330
:10015000DF93AC01E091B901F091BA013097F1F071
:100160009091B8018091B7019817C0F090E0292FC5
:1001700030E02617370754F4D901A25EBE4F240F92
:10018000351FE90128812C939F5FF1CF1092B801B0
:100190006093B701CB01DF91CF910994DF91CF91AB
:1001A0000895AF92BF92CF92DF92EF92FF920F939A
:1001B0001F93CF93DF936C017B018B01040F151FFD
:1001C000EB015E01AE18BF08C017D10759F0699165
:1001D000D601ED91FC910190F081E02DC6010995C9
:1001E000892B79F7C501DF91CF911F910F91FF9076
:1001F000EF90DF90CF90BF90AF90089590E0FC011A
:10020000E859FF4F2491FC01EC55FF4F3491FC015C
:10021000E057FF4FE491EE23C9F0222339F0233059
:1002200001F1A8F4213019F1223029F1F0E0EE0FAC
:10023000FF1FE458FF4FA591B4918FB7F894EC914C
:10024000611126C030953E233C938FBF089527301F
:10025000A9F02830C9F0243049F7809180008F7DC3
:1002600003C0809180008F7780938000DFCF84B5BA
:100270008F7784BDDBCF84B58F7DFBCF8091B000BD
:100280008F778093B000D2CF8091B0008F7DF9CF6F
:100290003E2BDACF3FB7F8948091AA019091AB0141
:1002A000A091AC01B091AD0126B5A89B05C02F3F30
:1002B00019F00196A11DB11D3FBFBA2FA92F982F8C
:1002C0008827BC01CD01620F711D811D911D42E087
:1002D000660F771F881F991F4A95D1F708958F924F
:1002E0009F92AF92BF92CF92DF92EF92FF920E94C5
:1002F0004A014B015C0184E6C82ED12CE12CF12C83
:100300000E944A01681979098A099B09683E73406D
:1003100081059105A8F321E0C21AD108E108F1088E
:1003200088EE880E83E0981EA11CB11CC114D10474
:10033000E104F10429F7FF90EF90DF90CF90BF9098
:10034000AF909F908F90089585ED8093BC00809131
:10035000BC0084FDFCCF1092B401089520915E0191
:10036000260F3327331F21323105ECF42091B401DD
:10037000FC0190E080E0243069F082E00895A091D3
:100380005E012191AC01425C5E4FA40FB52FB11DFF
:100390002C930196861798F380915E01680F609305
:1003A0005E0180E0089581E008950895E091B8012C
:1003B0008091B701E81730F4F0E0E25EFE4F8081F3
:1003C00090E008958FEF9FEF08959091B80180918C
:1003D000B7012FEF3FEF981748F4E92FF0E0E25E06
:1003E000FE4F208130E09F5F9093B801C9010895CE
:1003F0008091B7019091B801891B990B0895CF9313
:10040000DF93CB01EA01642F0E94AE01CE01DF91A0
:10041000CF910895CF93DF931F92CDB7DEB7698355
:1004200061E0CE0101960E94AE0181E090E00F9064
:10043000DF91CF910895089590E080E008958F9224
:100440009F92AF92BF920F931F93CF93DF93CDB73D
:10045000DEB7A1970FB6F894DEBF0FBECDBF19A2CD
:10046000423008F44AE08E010F5D1F4F842E912C1C
:10047000B12CA12CA50194010E941606E62FB9010A
:10048000CA01EA3044F5E05DD801EE938D01232BDB
:10049000242B252B79F790E080E0109769F0FD017F
:1004A00001900020E9F73197AF014A1B5B0BBD01BA
:1004B00087EC91E00E94D100A1960FB6F894DEBFC0
:1004C0000FBECDBFDF91CF911F910F91BF90AF9025
:1004D0009F908F900895E95CD7CFCF93DF93EC0185
:1004E00060E08E810E94FE0061E08E810E94FE002D
:1004F00060E08E810E94FE008BE891E00197F1F7A9
:10050000DF91CF910895CF92DF92EF92FF920F93F8
:100510001F93CF93DF936C017C0187E0E80EF11C01
:10052000D0E0C0E0062F10E0B8010C2E02C0759597
:1005300067950A94E2F76170F70181917F010E944B
:10054000FE002196C430D10579F7C601DF91CF9125
:100550001F910F91FF90EF90DF90CF900C946D0260
:10056000CF92DF92EF92FF920F931F93CF93DF937F
:10057000EC01F62E642F8C810E94FE008D818F3F4E
:1005800019F060E00E94FE000F2D10E08F8584FFBF
:1005900025C06E0187E0C80ED11CF12CE12CB801FA
:1005A0000E2C02C0759567950A94E2F76170F6010A
:1005B00081916F010E94FE00FFEFEF1AFF0A88E0B1
:1005C000E816F10461F7CE01DF91CF911F910F91F1
:1005D000FF90EF90DF90CF900C946D02B80184E013
:1005E000759567958A95E1F7CE010E9483026F2D7C
:1005F000CE01DF91CF911F910F91FF90EF90DF908F
:10060000CF900C94830240E0682F87EC91E00C942B
:10061000B002CF93DF93823029F49091D601986095
:100620009093D6018093DA011092DB0180E48093ED
:10063000DC0180E18093DD0180E58093DE01809123
:10064000CB010E9487008091CC018F3F11F00E9466
:1006500087008091CD010E948700C7ECD1E09E0108
:10066000275C31408091D60184FD0AC084E090E08F
:100670002196281739073CF48E810E948700EFCF1E
:1006800088E090E0F5CF8BE39DE00197F1F760E023
:100690008091CB010E94FE0060E08091CD010E941C
:1006A000FE008091CC018F3F19F060E00E94FE00B7
:1006B0008091D60184FD39C063E087EC91E00E940F
:1006C0008302CBE4D6E4CE010197F1F763E087EC37
:1006D00091E00E9483022197F1F763E087EC91E0BB
:1006E0000E94830283E592E00197F1F762E087ECD4
:1006F00091E00E9483028091D60180620E940303F0
:1007000084E08093D7018CE00E94030381E00E9483
:1007100003038BE39FE10197F1F782E08093D80117
:1007200086E0DF91CF910C94030380620E94030363
:100730008BE496E40197F1F78091D60180620E94E4
:10074000030383E592E00197F1F78091D60180627F
:100750000E940303D0CF41E00E94B00281E090E00C
:100760000895CF92DF92EF92FF928091B70190911E
:10077000B801891B990B02977CF18BEB91E00E94E9
:10078000E5016C01E1E08091DA018111E0E0E195A1
:10079000F0E0E953FE4F84898E5F80680E94030376
:1007A0000D2C000CEE08FF084AE0C701B601F7FE69
:1007B0000EC041E06DE287EC91E00E94B002662736
:1007C0007727CB016C197D098E099F094AE00E94A9
:1007D0001F020E946F01C9CF8BEB91E0FF90EF9059
:1007E000DF90CF900C94E5011F920F920FB60F92FD
:1007F00011242F933F938F939F93AF93BF93809137
:10080000A6019091A701A091A801B091A9013091F2
:10081000A50123E0230F2D3758F50196A11DB11D29
:100820002093A5018093A6019093A701A093A8010E
:10083000B093A9018091AA019091AB01A091AC0164
:10084000B091AD010196A11DB11D8093AA019093B5
:10085000AB01A093AC01B093AD01BF91AF919F915B
:100860008F913F912F910F900FBE0F901F90189571
:1008700026E8230F0296A11DB11DD2CF1F920F9221
:100880000FB60F9211242F933F934F935F936F9363
:100890007F938F939F93AF93BF93EF93FF93809139
:1008A000B900887F803609F44AC0F0F5883209F42F
:1008B000A7C018F5803109F49BC0B8F4882309F467
:1008C000F9C0883009F494C0FF91EF91BF91AF91C6
:1008D0009F918F917F916F915F914F913F912F9158
:1008E0000F900FBE0F901F901895883109F488C0A3
:1008F000803251F78093810114C0803409F49DC087
:1009000040F48033B9F38833F9F68093810185ECA4
:10091000B0C0803509F485C0883509F496C08834A4
:1009200099F60E94A401D0CF883909F48CC038F51B
:10093000883729F050F4883611F0803729F683E0A3
:100940008093B4011092800157C0883809F47BC0AD
:10095000803919F0803809F0B7CF8091800180325A
:1009600008F071C0E091800181E08E0F80938001DA
:100970008091BB00F0E0E05AFE4F80833DC0803B99
:1009800039F0E0F4803A09F479C0883A09F09CCF54
:1009900084E08093B40110925F0110925E01E091B7
:1009A000B001F091B101099580915E0181110FC0F4
:1009B00081E080935E0110923E0109C0803C09F401
:1009C000A6CF883C09F4A3CF883B09F07DCFE09106
:1009D0005F0181E08E0F80935F01F0E0E25CFE4FEB
:1009E00080818093BB0090915F0180915E0129C05E
:1009F0008091A4018093BB0085EC8093BC0064CF00
:100A00009091A3018091A201981758F5E091A3015C
:100A100081E08E0F8093A301F0E0EE57FE4F8081BE
:100A2000E9CFE091A30181E08E0F8093A301809133
:100A3000BB00F0E0EE57FE4F80839091A3018091C0
:100A4000A2019817C8F285E8D8CFE091A30181E010
:100A50008E0F8093A3018091BB00F0E0EE57FE4F14
:100A600080838091B30181115CCF81E08093B201DA
:100A700084EA8093BC001092B40126CF85EC809369
:100A8000BC001092B40180918001803230F4E0917A
:100A90008001F0E0E05AFE4F10826091800170E02A
:100AA000E091AE01F091AF0180E691E009951092DE
:100AB00080010ACF1092810134CFEBEBF1E0138279
:100AC000128288EE93E0A0E0B0E084839583A68351
:100AD000B78384E091E091838083E7ECF1E01382B7
:100AE000128286E191E09183808382E084838FEF9C
:100AF000858383E0868384E0878385E0808786E042
:100B0000818787E082871386148615861686178666
:100B100081E00C940903789484B5826084BD84B527
:100B2000816084BD85B5826085BD85B5816085BDE8
:100B300080916E00816080936E00109281008091A0
:100B40008100826080938100809181008160809328
:100B50008100809180008160809380008091B1004D
:100B600084608093B1008091B00081608093B00078
:100B700080917A00846080937A0080917A0082600C
:100B800080937A0080917A00816080937A008091CE
:100B90007A00806880937A001092C10082E00E94FF
:100BA00009031092B8011092B7011092B601109289
:100BB000B5011092B40181E08093B3011092B201AB
:100BC00061E082E10E94FE0061E083E10E94FE009C
:100BD0008091B9008E7F8093B9008091B9008D7F9C
:100BE0008093B90088E48093B80085E48093BC00CA
:100BF00086EA90E09093B1018093B00187EA90E09B
:100C00009093AF018093AE0180E18093BA0081EBB5
:100C100093E09093BA018093B901C0E0D0E00E94C4
:100C20006F012097E1F30E940000F9CFA1E21A2E94
:100C3000AA1BBB1BFD010DC0AA1FBB1FEE1FFF1F80
:100C4000A217B307E407F50720F0A21BB30BE40BD0
:100C5000F50B661F771F881F991F1A9469F7609517
:100C60007095809590959B01AC01BD01CF010895D1
:100C7000EE0FFF1F0590F491E02D0994F894FFCF3B
:100C8000000000000A02FF011C02D501F801E50185
:0E0C9000D60100000000AB03D1001C021B02C5
:107E0000112484B714BE81FFF0D085E080938100F7
:107E100082E08093C00088E18093C10086E0809377
:107E2000C20080E18093C4008EE0C9D0259A86E02C
:107E300020E33CEF91E0309385002093840096BBD3
:107E4000B09BFECF1D9AA8958150A9F7CC24DD24C4
:107E500088248394B5E0AB2EA1E19A2EF3E0BF2EE7
:107E6000A2D0813461F49FD0082FAFD0023811F036
:107E7000013811F484E001C083E08DD089C08234E0
:107E800011F484E103C0853419F485E0A6D080C0E4
:107E9000853579F488D0E82EFF2485D0082F10E0AE
:107EA000102F00270E291F29000F111F8ED06801E7
:107EB0006FC0863521F484E090D080E0DECF843638
:107EC00009F040C070D06FD0082F6DD080E0C81688
:107ED00080E7D80618F4F601B7BEE895C0E0D1E017
:107EE00062D089930C17E1F7F0E0CF16F0E7DF06D8
:107EF00018F0F601B7BEE89568D007B600FCFDCFD4
:107F0000A601A0E0B1E02C9130E011968C91119780
:107F100090E0982F8827822B932B1296FA010C0160
:107F200087BEE89511244E5F5F4FF1E0A038BF0790
:107F300051F7F601A7BEE89507B600FCFDCF97BE46
:107F4000E89526C08437B1F42ED02DD0F82E2BD052
:107F50003CD0F601EF2C8F010F5F1F4F84911BD097
:107F6000EA94F801C1F70894C11CD11CFA94CF0C13
:107F7000D11C0EC0853739F428D08EE10CD085E9AC
:107F80000AD08FE07ACF813511F488E018D01DD067
:107F900080E101D065CF982F8091C00085FFFCCF94
:107FA0009093C60008958091C00087FFFCCF809118
:107FB000C00084FD01C0A8958091C6000895E0E648
:107FC000F0E098E1908380830895EDDF803219F02E
:107FD00088E0F5DFFFCF84E1DECF1F93182FE3DFCA
:107FE0001150E9F7F2DF1F91089580E0E8DFEE27F6
:047FF000FF270994CA
:027FFE00040479
:0400000300007E007B
:00000001FF
