:100000000C9462000C948A000C948A000C948A0070
:100010000C948A000C948A000C948A000C948A0038
:100020000C948A000C948A000C948A000C948A0028
:100030000C948A000C948A000C948A000C948A0018
:100040000C94F3010C948A000C948A000C948A009E
:100050000C948A000C948A000C948A000C948A00F8
:100060000C943D020C948A0000000000230026003E
:10007000290000000008000201000003040700003E
:1000800000000000000000000000250028002B00F8
:1000900000000000240027002A00040404040404D3
:1000A0000404020202020202030303030303010227
:1000B00004081020408001020408102001020408F6
:1000C00010200A0411241FBECFEFD8E0DEBFCDBF41
:1000D00011E0A0E0B1E0E6E4F8E002C005900D9286
:1000E000A631B107D9F721E0A6E1B1E001C01D9228
:1000F000AF3BB207E1F710E0C2E6D0E004C02197C1
:10010000FE010E941B04C136D107C9F70E945C039F
:100110000C9421040C940000CF93DF9390E0FC0139
:10012000E255FF4F249186569F4FFC01849188230E
:10013000C1F090E0880F991FFC01E057FF4FC59177
:10014000D491FC01EA57FF4FA591B4919FB7F89461
:100150008881E22FE0958E2388838C91E823EC93AD
:100160009FBFDF91CF910895E091B101F091B2016D
:10017000309729F01092AE011092AD0109940895C4
:100180000895833081F028F4813099F08230A9F00D
:1001900008958730A9F08830C9F08430B1F4809197
:1001A00080008F7D03C0809180008F7780938000D6
:1001B000089584B58F7784BD089584B58F7DFBCF76
:1001C0008091B0008F778093B00008958091B00047
:1001D0008F7DF9CFCF93DF93282F30E0F901EE58D0
:1001E000FF4F8491F901E255FF4FD491F901E65692
:1001F000FF4FC491CC2389F081110E94C100EC2FE4
:10020000F0E0EE0FFF1FEA57FF4FA591B4918FB7B3
:10021000F894EC91DE2BDC938FBFDF91CF910895A2
:10022000CF93DF93282F30E0F901EE58FF4F8491F0
:10023000F901E255FF4FD491F901E656FF4FC49101
:10024000CC23A1F081110E94C100EC2FF0E0EE0F51
:10025000FF1FE859FF4FA591B491EC91ED2381E088
:1002600090E009F480E0DF91CF91089580E090E084
:10027000FACF3FB7F8948091A2019091A301A09189
:10028000A401B091A50126B5A89B05C02F3F19F088
:100290000196A11DB11D3FBFBA2FA92F982F882706
:1002A000BC01CD01620F711D811D911D42E0660FE1
:1002B000771F881F991F4A95D1F7089585ED809380
:1002C000BC008091BC0084FDFCCF1092AC0108956D
:1002D00020915601260F3327331F21323105ECF4CC
:1002E0002091AC01FC0190E080E0243069F082E0D4
:1002F0000895A09156012191AC014A5C5E4FA40F74
:10030000B52FB11D2C930196861798F38091560155
:10031000680F6093560180E0089581E00895089584
:10032000E091B0018091AF01E81730F4F0E0EA5EAF
:10033000FE4F808190E008958FEF9FEF0895909198
:10034000B0018091AF012FEF3FEF981748F4E92FEC
:10035000F0E0EA5EFE4F208130E09F5F9093B001B5
:10036000C90108958091AF019091B001891B990B4B
:100370000895CF93DF93CB01EA01642F0E946801B7
:10038000CE01DF91CF910895CF93DF931F92CDB728
:10039000DEB7698361E0CE0101960E94680181E0C9
:1003A00090E00F90DF91CF91089590E080E0089564
:1003B00087E00E941001892B41F041E050E062E1AA
:1003C00071E083EB91E00E94B90186E00E94100188
:1003D000892B41F041E050E064E171E083EB91E072
:1003E0000C94B90108951F920F920FB60F92112429
:1003F0002F933F938F939F93AF93BF9380919E01D1
:1004000090919F01A091A001B091A10130919D0117
:1004100023E0230F2D3758F50196A11DB11D209320
:100420009D0180939E0190939F01A093A001B093A2
:10043000A1018091A2019091A301A091A401B0918A
:10044000A5010196A11DB11D8093A2019093A30166
:10045000A093A401B093A501BF91AF919F918F91FB
:100460003F912F910F900FBE0F901F90189526E887
:10047000230F0296A11DB11DD2CF1F920F920FB66E
:100480000F9211242F933F934F935F936F937F931A
:100490008F939F93AF93BF93EF93FF938091B90096
:1004A000887F803609F44AC0F0F5883209F4A7C085
:1004B00018F5803109F49BC0B8F4882309F4F9C019
:1004C000883009F494C0FF91EF91BF91AF919F9153
:1004D0008F917F916F915F914F913F912F910F90ED
:1004E0000FBE0F901F901895883109F488C0803294
:1004F00051F78093790114C0803409F49DC040F411
:100500008033B9F38833F9F68093790185ECB0C074
:10051000803509F485C0883509F496C0883499F689
:100520000E945E01D0CF883909F48CC038F5883735
:1005300029F050F4883611F0803729F683E0809353
:10054000AC011092780157C0883809F47BC080391B
:1005500019F0803809F0B7CF80917801803208F027
:1005600071C0E091780181E08E0F809378018091D5
:10057000BB00F0E0E85AFE4F80833DC0803B39F07D
:10058000E0F4803A09F479C0883A09F09CCF84E01D
:100590008093AC011092570110925601E091A8018E
:1005A000F091A90109958091560181110FC081E058
:1005B000809356011092360109C0803C09F4A6CF01
:1005C000883C09F4A3CF883B09F07DCFE091570127
:1005D00081E08E0F80935701F0E0EA5CFE4F80814E
:1005E0008093BB00909157018091560129C0809162
:1005F0009C018093BB0085EC8093BC0064CF9091FC
:100600009B0180919A01981758F5E0919B0181E038
:100610008E0F80939B01F0E0E658FE4F8081E9CF7A
:10062000E0919B0181E08E0F80939B018091BB0044
:10063000F0E0E658FE4F808390919B0180919A01F3
:100640009817C8F285E8D8CFE0919B0181E08E0F22
:1006500080939B018091BB00F0E0E658FE4F8083C1
:100660008091AB0181115CCF81E08093AA0184EA83
:100670008093BC001092AC0126CF85EC8093BC0027
:100680001092AC0180917801803230F4E0917801D1
:10069000F0E0E85AFE4F10826091780170E0E0913E
:1006A000A601F091A70188E591E0099510927801E3
:1006B0000ACF1092790134CF789484B5826084BDDA
:1006C00084B5816084BD85B5826085BD85B5816056
:1006D00085BD80916E00816080936E0010928100D4
:1006E000809181008260809381008091810081608F
:1006F0008093810080918000816080938000809150
:10070000B10084608093B1008091B00081608093DB
:10071000B00080917A00846080937A0080917A00A2
:10072000826080937A0080917A00816080937A0061
:1007300080917A00806880937A001092C1001092B4
:10074000B0011092AF011092AE011092AD01109263
:10075000AC0181E08093AB011092AA0182E10E947A
:10076000EA0083E10E94EA008091B9008E7F8093C5
:10077000B9008091B9008D7F8093B90088E480939F
:10078000B80085E48093BC0084EB90E09093A901CD
:100790008093A80180EC90E09093A7018093A6013C
:1007A0008EE08093BA0087E00E948C0086E00E9471
:1007B0008C0088ED91E09093B2018093B101C0E08C
:1007C000D0E00E9439014B015C0184E6C82ED12C97
:1007D000E12CF12C0E943901681979098A099B09D9
:1007E000683E734081059105A8F321E0C21AD10843
:1007F000E108F10888EE880E83E0981EA11CB11C68
:10080000C114D104E104F10429F72097D1F20E9428
:100810000000D7CFE3EBF1E01382128288EE93E081
:10082000A0E0B0E084839583A683B78384E091E061
:10083000918380830895EE0FFF1F0590F491E02DC2
:060840000994F894FFCFBB
:1008460000000000C401B901D5018F01B2019F016A
:0608560090015500440072
:107E0000112484B714BE81FFF0D085E080938100F7
:107E100082E08093C00088E18093C10086E0809377
:107E2000C20080E18093C4008EE0C9D0259A86E02C
:107E300020E33CEF91E0309385002093840096BBD3
:107E4000B09BFECF1D9AA8958150A9F7CC24DD24C4
:107E500088248394B5E0AB2EA1E19A2EF3E0BF2EE7
:107E6000A2D0813461F49FD0082FAFD0023811F036
:107E7000013811F484E001C083E08DD089C08234E0
:107E800011F484E103C0853419F485E0A6D080C0E4
:107E9000853579F488D0E82EFF2485D0082F10E0AE
:107EA000102F00270E291F29000F111F8ED06801E7
:107EB0006FC0863521F484E090D080E0DECF843638
:107EC00009F040C070D06FD0082F6DD080E0C81688
:107ED00080E7D80618F4F601B7BEE895C0E0D1E017
:107EE00062D089930C17E1F7F0E0CF16F0E7DF06D8
:107EF00018F0F601B7BEE89568D007B600FCFDCFD4
:107F0000A601A0E0B1E02C9130E011968C91119780
:107F100090E0982F8827822B932B1296FA010C0160
:107F200087BEE89511244E5F5F4FF1E0A038BF0790
:107F300051F7F601A7BEE89507B600FCFDCF97BE46
:107F4000E89526C08437B1F42ED02DD0F82E2BD052
:107F50003CD0F601EF2C8F010F5F1F4F84911BD097
:107F6000EA94F801C1F70894C11CD11CFA94CF0C13
:107F7000D11C0EC0853739F428D08EE10CD085E9AC
:107F80000AD08FE07ACF813511F488E018D01DD067
:107F900080E101D065CF982F8091C00085FFFCCF94
:107FA0009093C60008958091C00087FFFCCF809118
:107FB000C00084FD01C0A8958091C6000895E0E648
:107FC000F0E098E1908380830895EDDF803219F02E
:107FD00088E0F5DFFFCF84E1DECF1F93182FE3DFCA
:107FE0001150E9F7F2DF1F91089580E0E8DFEE27F6
:047FF000FF270994CA
:027FFE00040479
:0400000300007E007B
:00000001FF
